:020000040800F2
:100000000000012055200008B51F0008BB1F000894
:10001000C11F0008C71F0008CD1F00080000000016
:10002000000000000000000000000000D31F0008D6
:10003000E11F000800000000EF1F0008FD1F00087E
:10004000A5200008A5200008A5200008A52000087C
:10005000A5200008A5200008A5200008A52000086C
:10006000A5200008A5200008A5200008A52000085C
:10007000A5200008A5200008A5200008A52000084C
:10008000A5200008A5200008A5200008A52000083C
:1000900009200008A5200008A5200008A5200008C8
:1000A000A5200008A5200008A5200008A52000081C
:1000B0001D2000080000000000000000A52000082E
:1000C000A5200008A5200008A5200008A5200008FC
:1000D000A5200008A5200008A5200008A5200008EC
:1000E000A5200008A5200008000000000000000076
:1000F0000000000000000000000000000000000000
:1001000000000000A520000800000000A520000855
:100110000000000000000000A5200008A520000845
:10012000A5200008A5200008A5200008A52000089B
:10013000A5200008000000000000000000000000F2
:10014000A5200008A5200008A52000080000000048
:10015000A5200008A5200008A5200008A52000086B
:10016000A5200008A5200008A52000080000000028
:10017000A5200008A52000080000000000000000E5
:0C018000A5200008A5200008A52000080C
:1001900010B5054C237833B9044B13B10448AFF3C1
:1001A00000800123237010BD0C000020000000001F
:1001B0004C5C000808B5034B1BB103490348AFF37F
:1001C000008008BD00000000100000204C5C00080A
:1001D00081F0004102E000BF83F0004330B54FEAF8
:1001E00041044FEA430594EA050F08BF90EA020F65
:1001F0001FBF54EA000C55EA020C7FEA645C7FEAF8
:10020000655C00F0E2804FEA5454D4EB5555B8BF1A
:100210006D420CDD2C4480EA020281EA030382EA8B
:10022000000083EA010180EA020281EA0303362D1D
:1002300088BF30BD11F0004F4FEA01314FF4801CF0
:100240004CEA113102D0404261EB410113F0004F02
:100250004FEA03334CEA133302D0524263EB4303B9
:1002600094EA050F00F0A780A4F10104D5F1200E57
:100270000DDB02FA0EFC22FA05F2801841F10001B2
:1002800003FA0EF2801843FA05F359410EE0A5F186
:1002900020050EF1200E012A03FA0EFC28BF4CF0B7
:1002A000020C43FA05F3C01851EBE37101F000456D
:1002B00007D54FF0000EDCF1000C7EEB00006EEB7A
:1002C0000101B1F5801F1BD3B1F5001F0CD3490804
:1002D0005FEA30004FEA3C0C04F101044FEA44525B
:1002E00012F5800F80F09A80BCF1004F08BF5FEAE2
:1002F000500C50F1000041EB045141EA050130BDC2
:100300005FEA4C0C404141EB0101013C28BFB1F5D3
:10031000801FE9D291F0000F04BF01460020B1FA1E
:1003200081F308BF2033A3F10B03B3F120020CDAF1
:100330000C3208DD02F1140CC2F10C0201FA0CF0CF
:1003400021FA02F10CE002F11402D8BFC2F1200C34
:1003500001FA02F120FA0CFCDCBF41EA0C019040EA
:10036000E41AA2BF01EB0451294330BD6FEA040433
:100370001F3C1CDA0C340EDC04F11404C4F120021E
:1003800020FA04F001FA02F340EA030021FA04F330
:1003900045EA030130BDC4F10C04C4F1200220FA87
:1003A00002F001FA04F340EA0300294630BD21FAC5
:1003B00004F0294630BD94F0000F83F4801306BF8B
:1003C00081F480110134013D4EE77FEA645C18BF7F
:1003D0007FEA655C29D094EA050F08BF90EA020F16
:1003E00005D054EA000C04BF1946104630BD91EA0E
:1003F000030F1EBF0021002030BD5FEA545C05D111
:100400004000494128BF41F0004130BD14F580044F
:100410003CBF01F5801130BD01F0004545F0FE41C3
:1004200041F470014FF0000030BD7FEA645C1ABFF8
:10043000194610467FEA655C1CBF0B46024650EA2F
:10044000013406BF52EA033591EA030F41F400215B
:1004500030BD00BF90F0000F04BF0021704730B5E1
:100460004FF4806404F132044FF000054FF00001B6
:1004700050E700BF90F0000F04BF0021704730B577
:100480004FF4806404F1320410F0004548BF40424C
:100490004FF000013EE700BF42004FEAE2014FEAA1
:1004A00031014FEA02701FBF12F07F4393F07F4F7C
:1004B00081F06051704732F07F4208BF704793F07F
:1004C0007F4F04BF41F40021704730B54FF4607492
:1004D00001F0004521F000411CE700BF50EA010295
:1004E00008BF704730B54FF000050AE050EA01023E
:1004F00008BF704730B511F0004502D5404261EBAE
:1005000041014FF4806404F132045FEA915C3FF4EE
:10051000D8AE4FF003025FEADC0C18BF03325FEA8B
:10052000DC0C18BF033202EBDC02C2F1200300FA3C
:1005300003FC20FA02F001FA03FE40EA0E0021FA61
:1005400002F11444BDE600BF70B54FF0FF0C4CF44F
:10055000E06C1CEA11541DBF1CEA135594EA0C0F01
:1005600095EA0C0F00F0DEF82C4481EA030621EA3C
:100570004C5123EA4C5350EA013518BF52EA033577
:1005800041F4801143F4801338D0A0FB02CE4FF029
:100590000005E1FB02E506F00042E0FB03E54FF059
:1005A0000006E1FB03569CF0000F18BF4EF0010E51
:1005B000A4F1FF04B6F5007F64F5407404D25FEA4D
:1005C0004E0E6D4146EB060642EAC62141EA555100
:1005D0004FEAC52040EA5E504FEACE2EB4F1FD0C42
:1005E00088BFBCF5E06F1ED8BEF1004F08BF5FEAC0
:1005F000500E50F1000041EB045170BD06F0004672
:1006000046EA010140EA020081EA0301B4EB5C041E
:10061000C2BFD4EB0C0541EA045170BD41F4801116
:100620004FF0000E013C00F3AB8014F1360FDEBF3B
:10063000002001F0004170BDC4F10004203C35DA17
:100640000C341BDC04F11404C4F1200500FA05F39A
:1006500020FA04F001FA05F240EA020001F000423B
:1006600021F0004110EBD37021FA04F642EB0601B1
:100670005EEA430E08BF20EAD37070BDC4F10C04DB
:10068000C4F1200500FA04F320FA05F001FA04F29F
:1006900040EA020001F0004110EBD37041F100018B
:1006A0005EEA430E08BF20EAD37070BDC4F1200596
:1006B00000FA05F24EEA020E20FA04F301FA05F2FE
:1006C00043EA020321FA04F001F0004121FA04F2A6
:1006D00020EA020000EBD3705EEA430E08BF20EA76
:1006E000D37070BD94F0000F0FD101F000464000B0
:1006F00041EB010111F4801F08BF013CF7D041EA32
:10070000060195F0000F18BF704703F00046520035
:1007100043EB030313F4801F08BF013DF7D043EA06
:100720000603704794EA0C0F0CEA135518BF95EABC
:100730000C0F0CD050EA410618BF52EA4306D1D143
:1007400081EA030101F000414FF0000070BD50EA62
:10075000410606BF1046194652EA430619D094EAEC
:100760000C0F02D150EA013613D195EA0C0F05D1D6
:1007700052EA03361CBF104619460AD181EA03012A
:1007800001F0004141F0FE4141F470014FF00000E2
:1007900070BD41F0FE4141F4780170BD70B54FF07D
:1007A000FF0C4CF4E06C1CEA11541DBF1CEA1355FD
:1007B00094EA0C0F95EA0C0F00F0A7F8A4EB0504DF
:1007C00081EA030E52EA03354FEA013100F08880D6
:1007D0004FEA03334FF0805545EA131343EA12639F
:1007E0004FEA022245EA111545EA10654FEA002654
:1007F0000EF000419D4208BF964244F1FD0404F50D
:10080000407402D25B084FEA3202B61A65EB030568
:100810005B084FEA32024FF480104FF4002CB6EB25
:10082000020E75EB030E22BFB61A754640EA0C00A5
:100830005B084FEA3202B6EB020E75EB030E22BFE5
:10084000B61A754640EA5C005B084FEA3202B6EB26
:10085000020E75EB030E22BFB61A754640EA9C00E5
:100860005B084FEA3202B6EB020E75EB030E22BFB5
:10087000B61A754640EADC0055EA060E18D04FEA73
:10088000051545EA16754FEA06164FEAC30343EA13
:1008900052734FEAC2025FEA1C1CC0D111F4801FE0
:1008A0000BD141EA00014FF000004FF0004CB6E7D9
:1008B00011F4801F04BF01430020B4F1FD0C88BF78
:1008C000BCF5E06F3FF6AFAEB5EB030C04BFB6EB83
:1008D000020C5FEA500C50F1000041EB045170BD76
:1008E0000EF0004E4EEA113114EB5C04C2BFD4EBA3
:1008F0000C0541EA045170BD41F480114FF0000E27
:10090000013C90E645EA060E8DE60CEA135594EAA2
:100910000C0F08BF95EA0C0F3FF43BAF94EA0C0FA5
:100920000AD150EA01347FF434AF95EA0C0F7FF41A
:1009300025AF104619462CE795EA0C0F06D152EA6E
:1009400003353FF4FDAE1046194622E750EA410652
:1009500018BF52EA43067FF4C5AE50EA41047FF463
:100960000DAF52EA43057FF4EBAE12E74FEA4102C6
:10097000B2F1E04324BFB3F5001CDCF1FE5C0DD9FD
:1009800001F0004C4FEAC0024CEA5070B2F1004F47
:1009900040EB830008BF20F00100704711F0804F4A
:1009A00021D113F13872BCBF01F00040704741F40F
:1009B00080114FEA5252C2F11802C2F1200C10FA13
:1009C0000CF320FA02F018BF40F001004FEAC123F7
:1009D0004FEAD32303FA0CFC40EA0C0023FA02F39B
:1009E0004FEA4303CCE77FEA625307D150EA013371
:1009F0001EBF4FF0FE4040F44000704701F0004041
:100A000040F0FE4040F40000704700BF4FF0FF3C54
:100A100006E000BF4FF0010C02E000BF4FF0010CF8
:100A20004DF804CD4FEA410C7FEA6C5C4FEA430C71
:100A300018BF7FEA6C5C1BD001B050EA410C0CBFC0
:100A400052EA430C91EA030F02BF90EA020F002022
:100A5000704710F1000F91EA030F58BF994208BF89
:100A600090422CBFD8176FEAE37040F00100704746
:100A70004FEA410C7FEA6C5C02D150EA013C07D19D
:100A80004FEA430C7FEA6C5CD6D152EA033CD3D0E8
:100A90005DF8040B704700BF8446104662468C46E2
:100AA0001946634600E000BF01B5FFF7B7FF002815
:100AB00048BF10F1000F01BD4DF808EDFFF7F4FF3E
:100AC0000CBF012000205DF808FB00BF4DF808EDC9
:100AD000FFF7EAFF34BF012000205DF808FB00BFEC
:100AE0004DF808EDFFF7E0FF94BF012000205DF80E
:100AF00008FB00BF4DF808EDFFF7CEFF94BF0120C3
:100B000000205DF808FB00BF4DF808EDFFF7C4FFBB
:100B100034BF012000205DF808FB00BF80B586B01F
:100B200000AF41F2883004F0C9FD834B1B883B8243
:100B30000023BB7400237B6007F1080300221A60C6
:100B40009A80012208214FF0904002F079FB0022A8
:100B500008214FF0904002F073FB022000F03AFFB2
:100B60000A2301227549764803F089FA4FF47A7016
:100B700004F0A4FD0A2301227249714803F07FFAB0
:100B8000142004F09BFD21233B7400237B7407F1A8
:100B900010010A2302226A4803F071FA4FF47A73B3
:100BA00001226949664803F0D8FB322004F086FD33
:100BB00041233B7400237B740123BB7407F11001B4
:100BC0000A2303225E4803F05AFA322004F076FD2D
:100BD00021233B7400237B7407F110010A230222B6
:100BE000574803F04CFA4FF47A730122564954489F
:100BF00003F0B3FB322004F061FD42233B74002379
:100C00007B746023BB7407F110010A2303224C4854
:100C100003F035FA322004F051FD22233B74002307
:100C20007B7407F110010A230222454803F027FADA
:100C30004FF47A7301224449414803F08EFB32207D
:100C400004F03CFD43233B7400237B74CC23BB7432
:100C500007F110010A230322394803F010FA322069
:100C600004F02CFD23233B7400237B7407F1100157
:100C70000A230222324803F002FA4FF47A73012267
:100C800031492F4803F069FB322004F017FD45235A
:100C90003B7107237B7102237B6107E03A1D7B696F
:100CA000134450221A707B6901337B617B69092BE5
:100CB000F4DD391D4FF47A730A22214803F0DFF97D
:100CC000322004F0FBFC25233B7407237B7407F1DF
:100CD00010010A2302221A4803F0D1F94FF47A7363
:100CE00007221949164803F038FB322004F0E6FCCD
:100CF0004FF47A7301221549114803F0C0F94FF4FB
:100D00007A73132210490E4803F027FB0A230122AD
:100D10000F490B4803F0B3F90A2004F0CFFC01227D
:100D200008214FF0904002F08BFA642004F0C6FCDA
:100D300000BF1837BD4680BD685C00086B5C0008CA
:100D4000C00100206C5C0008280000206E5C0008D8
:100D50006D5C000880B500AF002208214FF0904084
:100D600002F06EFA4FF47A7301223D493D4803F0D8
:100D700086F94FF47A7313223B493A4803F0EDFAAF
:100D8000012208214FF0904002F05AFA364B1B78AE
:100D9000C02B07D1344B5B78002B03D1324B9B78AF
:100DA000002B02D0314B01221A702F4BDB781B0233
:100DB0001AB22D4B1B791BB213431AB22C4B1A805B
:100DC000294B5B791B021AB2274B9B791BB2134349
:100DD0001AB2274B5A80244BDB791B021AB2224BE2
:100DE0001B7A1BB213431AB2214B9A801E4B5B7ABB
:100DF0001B021AB21C4B9B7A1BB213431AB21C4B38
:100E0000DA80194BDB7A1B021AB2174B1B7B1BB221
:100E100013431AB2164B1A81134B5B7B1B021AB297
:100E2000114B9B7B1BB213431AB2114B5A810E4BD1
:100E3000DB7B1B021AB20C4B1B7C1BB213431AB296
:100E40000B4B9A81084B5B7C1B021AB2064B9B7CB6
:100E50001BB213431AB2064BDA8100BF80BD00BF3C
:100E60006E5C0008C001002028000020AC000020BB
:100E70003C00002080B500AFFFF76CFF734B1B7880
:100E80000133DAB2714B1A70FFF764FF704B1B68C5
:100E90001A46704BB3F9003013441A466C4B1A6073
:100EA0006B4B5B681A466B4BB3F9023013441A461E
:100EB000674B5A60664B9B681A46664BB3F9043021
:100EC00013441A46624B9A60614BDB681A46614BC9
:100ED000B3F9063013441A465D4BDA605C4B1B696C
:100EE0001A465C4BB3F9083013441A46584B1A6142
:100EF000574B5B691A46574BB3F90A3013441A46ED
:100F0000534B5A61524B9B691A46524BB3F90C3002
:100F100013441A464E4B9A614D4BDB691A464D4BB2
:100F2000B3F90E3013441A46494BDA61474B1B782C
:100F3000494AA2FB03121209322101FB02F29B1A59
:100F4000DBB2002B7FD1424B1B68434A82FB03126A
:100F50001211DB17D31A07EE903AF8EEE77A3F4BFF
:100F6000C3ED007A3A4B5B683B4A82FB03121211D5
:100F7000DB17D31A07EE903AF8EEE77A374BC3ED5A
:100F8000017A334B9B68344A82FB03121211DB1740
:100F9000D31A07EE903AF8EEE77A304BC3ED027AB7
:100FA0002B4BDB682C4A82FB03121211DB17D31A7E
:100FB00007EE903AF8EEE77A284BC3ED037A244B1C
:100FC0001B69254A82FB03121211DB17D31A07EEA5
:100FD000903AF8EEE77A214BC3ED047A1C4B5B693B
:100FE0001D4A82FB03121211DB17D31A07EE903A47
:100FF000F8EEE77A194BC3ED057A154B9B69164A53
:1010000082FB03121211DB17D31A07EE903AF8EEA7
:10101000E77A124BC3ED067A0D4BDB690E4A82FB71
:1010200003121211DB17D31A07EE903AF8EEE77AA3
:101030000A4BC3ED077A054B00221A7020220021CB
:10104000034804F083FB00BF80BD00BFAD0000205B
:101050008C0000203C0000201F85EB514C0000203C
:10106000B0B483B000AF78602F4BD3ED007A9FED22
:101070002F7A67EE877A2E4BC3ED007A2A4BD3ED99
:10108000017A9FED2A7A67EE877A294BC3ED017AC0
:10109000254BD3ED027A9FED257A67EE877A244BB4
:1010A000C3ED027A204BD3ED037A9FED207A67EEF1
:1010B000877A1F4BC3ED037A1B4BD3ED047A9FED68
:1010C0001B7A67EE877A1A4BC3ED047A164BD3ED81
:1010D000057A9FED167A67EE877A154BC3ED057A90
:1010E000114BD3ED067A9FED117A67EE877A104B9C
:1010F000C3ED067A0C4BD3ED077A9FED0C7A67EEC1
:10110000877A0B4BC3ED077A7B68094A1C46154664
:101110000FCD0FC495E80F0084E80F0078680C37F6
:10112000BD46B0BC704700BF4C0000200000483AEC
:101130006C00002080B58AB000AF01233B62002321
:101140007B6100233B6100233B6000237B60002325
:10115000BB600023FB600023BB610123FB61002314
:101160007B623B461946194801F098F8174801F090
:101170005FF90221154801F081FB154B08221A6125
:10118000134B00225A60124B00229A60104B00222F
:10119000DA600F4B40F202221A600D4B00221A75E2
:1011A0000C4B00221A700B4B00225A70094B002284
:1011B0009A70084B0022DA70074B064A044903482C
:1011C00001F07AF900BF2837BD4680BD98010020A4
:1011D000B0000020E8000020E400002080B582B0CC
:1011E00000AF7860154B164A0021786801F034FA98
:1011F000134B1B69082B0CD1114B1B6840F20222C8
:10120000934206D10F4B01221A600F4B00221A6045
:101210000FE00B4B1B69082B0BD1094B1B6840F2ED
:101220000322934205D1084B01221A60054B00228C
:101230001A6000BF0837BD4680BD00BFF000002027
:10124000C8000020F8000020FC00002080B582B01B
:1012500000AF012208213D4801F0F2FF1F233B713E
:101260004F237B7100220821384801F0E9FF391D26
:101270000A230222364802F002FF012208213348E5
:1012800001F0DEFF334B4FF000021A60314B4FF09C
:1012900000025A602F4B4FF000029A602E4B4FF025
:1012A00000021A602C4B4FF000025A602A4B4FF09C
:1012B00000029A60294B4FF000021A60274B4FF052
:1012C00000025A60254B4FF000029A60244B4FF009
:1012D00000021A60224B4FF000025A60204B4FF080
:1012E00000029A601F4B4FF000021A601D4B4FF036
:1012F00000025A601B4B4FF000029A601A4B4FF0ED
:1013000000021A60184B4FF000025A60164B4FF063
:1013100000029A60154B4FF000021A60134B4FF019
:1013200000025A60114B4FF000029A60104B4FF0D0
:1013300000021A600E4B4FF000025A600C4B4FF047
:1013400000029A6000BF0837BD4680BD0008004813
:10135000C0010020000100200C0100201801002025
:1013600024010020300100203C0100204801002021
:10137000540100200000000080B500AF00220821C9
:101380005F4801F05DFF4FF47A7301225D495E48CA
:1013900002F075FE4FF47A730C225C495A4802F051
:1013A000DCFF01220821564801F04AFF574B1B7809
:1013B0001B021AB2554B5B781BB213431BB207EEEC
:1013C000903AB8EEE77ADFED526AC7EE267A514BD3
:1013D000C3ED007A4D4B9B781B021AB24B4BDB7866
:1013E0001BB213431BB207EE903AB8EEE77ADFED7B
:1013F000486AC7EE267A474BC3ED017A434B1B7907
:101400001B021AB2414B5B791BB213431BB207EEAE
:10141000903AF8EEE77AB1EE677ADFED3D6AC7EE13
:10142000267A3C4BC3ED027A384B9B791B021AB2E9
:10143000364BDB791BB213431BB207EE903AF8EE42
:10144000E77AF1EE677A17EE903A1846FFF724F83C
:1014500029A3D3E90023FFF7A1F902460B46104662
:101460001946FFF783FA03462B4A1360274B1B7A72
:101470001B021AB2254B5B7A1BB213431BB207EE59
:10148000903AF8EEE77AF1EE677A17EE903A18465E
:10149000FFF702F818A3D3E90023FFF77FF902460C
:1014A0000B4610461946FFF761FA03461A4A536085
:1014B000164B9B7A1B021AB2144BDB7A1BB21343F6
:1014C0001BB207EE903AF8EEE77A17EE900AFEF7B5
:1014D000E3FF09A3D3E90023FFF760F902460B46B7
:1014E00010461946FFF742FA03460B4A936000BFC5
:1014F00080BD00BFAFF300806666666666663040FA
:10150000000800486F5C0008C00100206001002056
:1015100000000045000100200C0100200000000038
:101520002DE9B04300AFFFF727FFA34B5B681846D8
:10153000FEF7B2FF804689469F4B9B681846FEF730
:10154000ABFF02460B4643EC112B49EC108B04F029
:1015500005F951EC100B4FF00002984BFEF7F4FF29
:1015600002460B461046194691A3D3E90023FFF724
:1015700015F902460B4610461946FFF7F7F90346E0
:101580008F4A13608C4B1B681846FEF785FF804618
:101590008946894B9B681846FEF77EFF02460B463C
:1015A00043EC112B49EC108B04F0D8F853EC102BC2
:1015B000144683F000454FF00002804B2046294638
:1015C000FEF7C2FF02460B461046194678A3D3E940
:1015D0000023FFF7E3F802460B4610461946FFF7D3
:1015E000C5F90346764A5360734B1B681846FEF7ED
:1015F00053FF04460D46704B5B681846FEF74CFFE0
:1016000002460B4643EC112B45EC104B04F0A6F8B8
:1016100051EC100B4FF00002684BFEF795FF0246AD
:101620000B461046194662A3D3E90023FFF7B6F82C
:1016300002460B4610461946FFF798F90346604AE2
:1016400093605F4B1B685F4A13605D4B5B685D4A4C
:1016500053605B4B9B685B4A93605B4BD3ED007AB6
:101660009FED5A7A27EE877A594BD3ED007A77EEC1
:10167000277A584BC3ED007A534BD3ED017A9FED97
:10168000537A27EE877A524BD3ED017A77EE277A99
:10169000504BC3ED017A4C4BD3ED027A9FED4B7A60
:1016A00027EE877A4A4BD3ED027A77EE277A494BB9
:1016B000C3ED027A484B93ED007A434BD3ED007AA9
:1016C000DFED426A67EEA67A77EE277A9FED437ADE
:1016D00027EE877A3A4BD3ED007ADFED416A67EE69
:1016E000A67A77EE277A3F4BC3ED007A3A4B93ED1B
:1016F000017A354BD3ED017ADFED346A67EEA67AD5
:1017000077EE277A9FED357A27EE877A2C4BD3ED4B
:10171000017ADFED336A67EEA67A77EE277A314BEE
:10172000C3ED017A2C4B93ED027A274BD3ED027A6D
:10173000DFED266A67EEA67A77EE277A9FED277AA5
:1017400027EE877A1E4BD3ED027ADFED256A67EE2E
:10175000A67A77EE277A234BC3ED027A184B1B68E3
:10176000184A1360164B5B68164A5360144B9B680B
:10177000144A9360174B1B68154A1360154B5B683E
:10178000134A5360134B9B68114A9360154B1B68B7
:10179000114A1360134B5B680F4A5360114B9B68EF
:1017A0000D4A936000BFBDE8B08300BFAFF3008077
:1017B000182D4454FB2109400001002000806640A0
:1017C00030010020480100200C0100206F12833AF4
:1017D000540100203C0100202401002048E17A3F10
:1017E00000D7A33C1801002080B400AF044B1B6855
:1017F00007EE903AB0EE670ABD465DF8047B70478D
:101800001801002080B400AF044B5B6807EE903AEB
:10181000B0EE670ABD465DF8047B704718010020F2
:1018200080B400AF044B9B6807EE903AB0EE670AB5
:10183000BD465DF8047B704718010020B0B58AB042
:1018400000AF4FF080435B6A4B4A136001224FF4B4
:1018500080514A4801F0F4FCFFF70CFB484C3B4632
:101860001846FFF7FDFB25463C460FCC0FC594E814
:101870000F0085E80F00FFF753FE0023FB84FFF7FE
:10188000B3FFF0EE407A9FED3F7A67EE877AFDEE88
:10189000E77A17EE903ABB84FFF7B4FFF0EE407A98
:1018A0009FED387A67EE877AFDEEE77A17EE903A89
:1018B0007B84FFF7B5FFF0EE407A9FED327A67EE5A
:1018C000877AFDEEE77A17EE903A3B84B7F9263037
:1018D0001B121BB2DAB22C4B1A70FB8CDAB22A4BF9
:1018E0005A70B7F924301B121BB2DAB2264B9A7029
:1018F000BB8CDAB2244BDA70B7F922301B121BB260
:10190000DAB2214B1A717B8CDAB21F4B5A71B7F9DC
:1019100020301B121BB2DAB21B4B9A713B8CDAB22D
:10192000194BDA71194B184A19491A4800F0C4FDCD
:1019300000224FF48051114801F082FC4FF08043A7
:101940005B6A154A1360144B1A680B4B1B68D31A59
:10195000002BB8BF5B42114A82FB03125211DB1706
:10196000D31A07EE903AF8EEE77A0D4BC3ED007A02
:1019700000BF2837BD46B0BD6C0100200004004800
:10198000780100200000C842E8000020E4000020A8
:10199000B000002098010020700100206766666694
:1019A0007401002080B500AFFFF7C4FBFFF7B6F865
:1019B000FFF74CFC014803F0ABFAFEE724020020DD
:1019C00080B582B000AF7860FFF738FF00BF0837FE
:1019D000BD4680BD80B485B000AF78600023FB6059
:1019E0000023BB600023FB600DE00023BB6003E02D
:1019F00000BFBB680133BB600222BB689342F7D9CA
:101A0000FB680133FB60FA687B689A42EDD900BF3E
:101A100000BF1437BD465DF8047B704780B500AF4A
:101A200003F0D8FD00F00BF800F01EF900F05AF8B2
:101A300000F08EF800F0CAF8FFF7B4FFFEE780B5BB
:101A400096B000AF07F1140344220021184603F0BA
:101A50007DFE3B4600221A605A609A60DA601A6185
:101A60004FF4007001F012FC0346002B01D000F08F
:101A7000C5F910237B610123FB6200233B636023D4
:101A80007B630223FB6301233B6401237B642023EC
:101A9000BB640723FB6402233B6502237B6507F1DC
:101AA0001403184601F048FC0346002B01D000F057
:101AB000A5F90F233B6003237B600023BB60002359
:101AC000FB6000233B613B460321184602F048F8C7
:101AD0000346002B01D000F091F900BF5837BD46F6
:101AE00080BD000080B500AF174B184A1A60164B36
:101AF00040225A60144B00229A60134B0022DA6095
:101B0000114B4FF440321A610F4B4FF440125A619F
:101B10000D4B00221A760C4B00225A760A4B0022FB
:101B20009A76094B0022DA76074B00221A77064B89
:101B300000225A77044800F0B6FA0346002B01D081
:101B400000F05CF900BF80BD9801002000640040F7
:101B500080B500AF1B4B1C4A1A601A4B4FF48272BF
:101B60005A60184B00229A60164B4FF4E062DA601C
:101B7000144B02221A61134B00225A61114B4FF48D
:101B800000729A610F4B2022DA610E4B00221A621A
:101B90000C4B00225A620B4B00229A62094B07221F
:101BA000DA62084B00221A63064B08225A63054882
:101BB00002F0C2F90346002B01D000F01FF900BF6C
:101BC00080BD00BFC00100200030014080B588B05A
:101BD00000AF07F1100300221A605A609A60DA60C1
:101BE0003B1D00221A605A609A601E4B4FF08042E3
:101BF0001A601C4B00225A601A4B00229A60194B43
:101C00004FF47A42DA60174B00221A61154B00221A
:101C10009A61144803F024F90346002B01D000F028
:101C2000EDF84FF480533B6107F1100319460D485E
:101C300003F0E1FA0346002B01D000F0DFF80023A7
:101C40007B600023FB603B1D1946064803F084F8C7
:101C50000346002B01D000F0D1F800BF2037BD466D
:101C600080BD00BF2402002080B58AB000AF07F11C
:101C7000140300221A605A609A60DA601A615C4BA1
:101C8000DB6C5B4A43F08003D364594BDB6C03F09D
:101C900080033B613B69564BDB6C554A43F00403C0
:101CA000D364534BDB6C03F00403FB60FB68504BC5
:101CB000DB6C4F4A43F00103D3644D4BDB6C03F004
:101CC0000103BB60BB684A4BDB6C494A43F002032B
:101CD000D364474BDB6C03F002037B607B6801221B
:101CE0000821444801F0ACFA012208214FF090404D
:101CF00001F0A6FA00224FF480513F4801F0A0FA0B
:101D000000224FF400414FF0904001F099FA002278
:101D10004FF4E051374801F093FA02237B614FF40E
:101D20008813BB610023FB6107F114031946314896
:101D300001F00CF908237B610123BB610023FB61E7
:101D400002233B6207F1140319462A4801F0FEF80A
:101D500004237B614FF48813BB610023FB6107F10F
:101D6000140319464FF0904001F0F0F808237B610E
:101D70000123BB610023FB6102233B6207F11403D3
:101D800019464FF0904001F0E1F84FF480537B6129
:101D90000123BB610023FB6100233B6207F11403B5
:101DA0001946154801F0D2F84FF400437B61012336
:101DB000BB610023FB6100233B6207F1140319465A
:101DC0004FF0904001F0C2F84FF4E0537B610123E3
:101DD000BB610023FB6100233B6207F1140319463A
:101DE000044801F0B3F800BF2837BD4680BD00BFEE
:101DF00000100240000800480004004880B400AF12
:101E000072B600BFFEE7000080B483B000AF0F4B96
:101E10001B6E0E4A43F0010313660C4B1B6E03F05E
:101E200001037B607B68094B9B6D084A43F080533C
:101E30009365064B9B6D03F080533B603B6800BF8E
:101E40000C37BD465DF8047B704700BF00100240B0
:101E500080B58AB000AF786007F1140300221A60E1
:101E60005A609A60DA601A617B681B681C4A934268
:101E700031D11C4B9B6D1B4A43F000739365194B8A
:101E80009B6D03F000733B613B69164BDB6C154A9D
:101E900043F00103D364134BDB6C03F00103FB60DD
:101EA000FB684FF4C0537B610223BB610023FB61DD
:101EB00003233B6209237B6207F1140319464FF0A9
:101EC000904001F043F800220021142001F007F8AF
:101ED000142001F020F800BF2837BD4680BD00BFA8
:101EE000006400400010024080B58AB000AF786006
:101EF00007F1140300221A605A609A60DA601A61CE
:101F00007B681B68174A934228D1174B1B6E164AF1
:101F100043F480531366144B1B6E03F480533B61F0
:101F20003B69114BDB6C104A43F00103D3640E4B49
:101F3000DB6C03F00103FB60FB68C2237B610223BF
:101F4000BB610023FB6103233B6205237B6207F136
:101F5000140319464FF0904000F0F8FF00BF2837F7
:101F6000BD4680BD003001400010024080B584B005
:101F700000AF78607B681B68B3F1804F13D10C4BC6
:101F80009B6D0B4A43F001039365094B9B6D03F076
:101F90000103FB60FB68002200211C2000F09FFF72
:101FA0001C2000F0B8FF00BF1037BD4680BD00BF49
:101FB0000010024080B400AFFEE780B400AFFEE73F
:101FC00080B400AFFEE780B400AFFEE780B400AF9E
:101FD000FEE780B400AF00BFBD465DF8047B7047EC
:101FE00080B400AF00BFBD465DF8047B704780B48D
:101FF00000AF00BFBD465DF8047B704780B500AF01
:1020000003F03CFB00BF80BD80B500AF024800F08C
:102010005BFC00BF80BD00BF9801002080B500AF11
:10202000024802F0C9FF00BF80BD00BF24020020AB
:1020300080B400AF064BD3F88830054A43F47003F0
:10204000C2F8883000BFBD465DF8047B704700BF12
:1020500000ED00E0DFF834D0FFF7EAFF0C480D494F
:102060000D4A002302E0D458C4500433C4188C42F3
:10207000F9D30A4A0A4C002301E013600432A24259
:10208000FBD303F03FFBFFF7C9FCFEE70000012094
:10209000000000200C000020285D00080C0000203B
:1020A00074020020FEE780B584B000AF78607B68E2
:1020B000002B01D10123EDE07B6893F82030DBB2E7
:1020C000002B02D17868FFF7C3FE7B681B681A6893
:1020D0007B681B6842F001021A6003F0E3FAF860C3
:1020E00012E003F0DFFA0246FB68D31A0A2B0BD981
:1020F0007B685B6A43F400327B685A627B68052226
:1021000083F820200123C5E07B681B685B6803F02F
:102110000103002BE5D07B681B681A687B681B688D
:1021200022F002021A6003F0BDFAF86012E003F038
:10213000B9FA0246FB68D31A0A2B0BD97B685B6A93
:1021400043F400327B685A627B68052283F82020C2
:1021500001239FE07B681B685B6803F00203002B90
:10216000E5D17B681B7E012B08D17B681B681A6850
:102170007B681B6842F080021A6007E07B681B687E
:102180001A687B681B6822F080021A607B685B7E9D
:10219000012B08D17B681B681A687B681B6842F0BA
:1021A00040021A6007E07B681B681A687B681B683E
:1021B00022F040021A607B689B7E012B08D17B686D
:1021C0001B681A687B681B6842F020021A6007E0EF
:1021D0007B681B681A687B681B6822F020021A6003
:1021E0007B68DB7E012B08D17B681B681A687B68E3
:1021F0001B6822F010021A6007E07B681B681A68EF
:102200007B681B6842F010021A607B681B7F012B01
:1022100008D17B681B681A687B681B6842F008025B
:102220001A6007E07B681B681A687B681B6822F0ED
:1022300008021A607B685B7F012B08D17B681B68F2
:102240001A687B681B6842F004021A6007E07B682A
:102250001B681A687B681B6822F004021A607B689E
:102260009A687B68DB681A437B681B691A437B6842
:102270005B6942EA03017B685B685A1E7B681B68E6
:102280000A43DA617B6800225A627B68012283F884
:102290002020002318461037BD4680BD80B487B08B
:1022A00000AF786039607B681B687B617B6893F85E
:1022B0002030FB74FB7C012B03D0FB7C022B40F015
:1022C000AA807B69D3F8003243F001027B69C3F82E
:1022D00000223B685B6903F01F03012202FA03F34B
:1022E000FB607B69D3F81C22FB68DB431A407B69E7
:1022F000C3F81C223B68DB69002B23D17B69D3F830
:102300000C22FB68DB431A407B69C3F80C223B6854
:10231000DB6819043B685B689BB23A6852691943F1
:102320007B69483243F832103B689B6819043B686C
:102330001B689AB23B685B690A4379694833DB00E2
:102340000B445A603B68DB69012B22D17B69D3F8CF
:102350000C22FB681A437B69C3F80C223B681B689C
:1023600019043B685B689BB23A68526919437B6900
:10237000483243F832103B689B6819043B68DB68BD
:102380009AB23B685B690A4379694833DB000B44C6
:102390005A603B689B69002B09D17B69D3F8042202
:1023A000FB68DB431A407B69C3F8042207E07B69C2
:1023B000D3F80422FB681A437B69C3F804223B6804
:1023C0001B69002B09D17B69D3F81422FB68DB431E
:1023D0001A407B69C3F8142207E07B69D3F8142202
:1023E000FB681A437B69C3F814223B681B6A012B04
:1023F00007D17B69D3F81C22FB681A437B69C3F8B9
:102400001C227B69D3F8003223F001027B69C3F8F8
:102410000022002306E07B685B6A43F480227B682D
:102420005A62012318461C37BD465DF8047B70478D
:1024300080B584B000AF78607B6893F82030DBB261
:10244000012B2ED17B68022283F820207B681B6839
:102450001A687B681B6822F001021A6003F022F9F7
:10246000F86012E003F01EF90246FB68D31A0A2B4B
:102470000BD97B685B6A43F400327B685A627B68E5
:10248000052283F82020012312E07B681B685B682B
:1024900003F00103002BE5D17B6800225A62002380
:1024A00006E07B685B6A43F400227B685A62012382
:1024B00018461037BD4680BD80B489B000AFF860C3
:1024C000B9607A603B60FB6893F82030FB77FB686B
:1024D0001B689B68BB61FB7F012B03D0FB7F022B3A
:1024E00040F0AD80BB6903F08063002B0AD1BB696B
:1024F00003F00063002B05D1BB6903F08053002B70
:1025000000F09580BB691B0E03F003037B61012281
:102510007B699A403B681A60BB689B68002B0DD1B1
:10252000BB681B685A05BB68DB68F96809681A4311
:102530007B6918331B010B441A600FE0BB685B68B2
:10254000DA00BB689B681A43BB68DB68F9680968F6
:102550001A437B6918331B010B441A60FB68196826
:10256000BB681A697B6918331B010B4404331A607A
:10257000BB681B7D012B11D1FB681A687B6918337E
:102580001B01134404331B68FA68116843F480721A
:102590007B6918331B010B4404331A607B680733D3
:1025A0001B781A067B6806331B781B041A437B686A
:1025B00005331B781B0213437A68043212781046E5
:1025C000FA68116843EA00027B691B010B4403F5BA
:1025D000C6731A607B6803331B781A067B68023364
:1025E0001B781B041A437B6801331B781B021343BF
:1025F0007A6812781046FA68116843EA00027B692B
:102600001B010B4403F5C4731A60FB681A687B69ED
:1026100018331B0113441B68FA68116843F0010268
:102620007B6918331B010B441A6000230EE0FB6822
:102630005B6A43F40012FB685A62012306E0FB6800
:102640005B6A43F48022FB685A62012318462437F0
:10265000BD465DF8047B704780B487B000AFF8607A
:10266000B9607A603B60FB6893F82030FB75FB7DB6
:10267000012B03D0FB7D022B40F0F380BB68002BC5
:102680000ED1FB681B68DB6803F00303002B16D137
:10269000FB685B6A43F40012FB685A620123E7E0BF
:1026A000FB681B681B6903F00303002B07D1FB6861
:1026B0005B6A43F40012FB685A620123D8E0FB68AE
:1026C0001A68BB681B331B0113441B6803F0040228
:1026D0007B689A607B689B68002B0CD1FB681A684A
:1026E000BB681B331B0113441B685B0DC3F30A0259
:1026F0007B681A600BE0FB681A68BB681B331B0120
:1027000013441B68DB0823F060427B685A60FB6857
:102710001A68BB681B331B0113441B6803F00202D9
:102720007B68DA60FB681A68BB681B331B011344C3
:1027300004331B6803F00F027B681A61FB681A6898
:10274000BB681B331B01134404331B681B0ADAB23A
:102750007B689A61FB681A68BB681B331B011344D2
:1027600004331B681B0C9AB27B685A61FB681A68B9
:10277000BB681B01134403F5DC731B68DAB23B68CA
:102780001A70FB681A68BB681B01134403F5DC73FD
:102790001B681A0A3B680133D2B21A70FB681A68C8
:1027A000BB681B01134403F5DC731B681A0C3B6800
:1027B0000233D2B21A70FB681A68BB681B0113445B
:1027C00003F5DC731B681A0E3B680333D2B21A7030
:1027D000FB681A68BB681B01134403F5DE731A68B3
:1027E0003B680433D2B21A70FB681A68BB681B01DD
:1027F000134403F5DE731B681A0A3B680533D2B233
:102800001A70FB681A68BB681B01134403F5DE737A
:102810001B681A0C3B680633D2B21A70FB681A6840
:10282000BB681B01134403F5DE731B681A0E3B687B
:102830000733D2B21A70BB68002B08D1FB681B6843
:10284000DA68FB681B6842F02002DA6007E0FB6888
:102850001B681A69FB681B6842F020021A6100239A
:1028600006E0FB685B6A43F48022FB685A6201233E
:1028700018461C37BD465DF8047B704780B485B0B0
:1028800000AF786039607B6893F82030FB73FB7B86
:10289000012B02D0FB7B022B09D17B681B68596995
:1028A0007B681B683A680A435A61002306E07B682C
:1028B0005B6A43F480227B685A620123184614370E
:1028C000BD465DF8047B704780B58AB000AF786084
:1028D00000237B627B681B685B693B627B681B68CB
:1028E0005B68FB617B681B689B68BB617B681B68DE
:1028F000DB687B617B681B681B693B617B681B68CD
:102900009B69FB603B6A03F00103002B7CD0BB6931
:1029100003F00103002B23D07B681B6801229A601F
:10292000BB6903F00203002B03D0786800F083F941
:1029300016E0BB6903F00403002B04D07B6A43F468
:1029400000637B620CE0BB6903F00803002B04D03A
:102950007B6A43F480537B6202E0786800F089F977
:10296000BB6903F48073002B24D07B681B684FF491
:1029700080729A60BB6903F40073002B03D07868FF
:1029800000F063F916E0BB6903F48063002B04D008
:102990007B6A43F400537B620CE0BB6903F4006381
:1029A000002B04D07B6A43F480437B6202E07868AA
:1029B00000F069F9BB6903F48033002B24D07B68F5
:1029C0001B684FF480329A60BB6903F40033002B1C
:1029D00003D0786800F043F916E0BB6903F4802364
:1029E000002B04D07B6A43F400437B620CE0BB699C
:1029F00003F40023002B04D07B6A43F480337B6212
:102A000002E0786800F049F93B6A03F00803002B04
:102A10000CD07B6903F01003002B07D07B6A43F4D2
:102A200000737B627B681B681022DA603B6A03F0EC
:102A30000403002B0BD07B6903F00803002B06D0A6
:102A40007B681B680822DA60786800F030F93B6A1E
:102A500003F00203002B09D07B681B68DB6803F0DE
:102A60000303002B02D07868FEF7B8FB3B6A03F043
:102A70004003002B0CD03B6903F01003002B07D060
:102A80007B6A43F480637B627B681B6810221A6157
:102A90003B6A03F02003002B0BD03B6903F00803D3
:102AA000002B06D07B681B6808221A61786800F04A
:102AB00012F93B6A03F01003002B09D07B681B68F6
:102AC0001B6903F00303002B02D0786800F0F9F8CB
:102AD0003B6A03F40033002B0BD0FB6903F01003B7
:102AE000002B06D07B681B6810225A60786800F0C3
:102AF000FCF83B6A03F48033002B0BD0FB6903F036
:102B00000803002B06D07B681B6808225A6078688F
:102B100000F0F5F83B6A03F40043002B7BD0FB691F
:102B200003F00403002B72D03B6A03F48073002B84
:102B300008D0FB6803F00103002B03D07B6A43F04D
:102B400001037B623B6A03F40073002B08D0FB682F
:102B500003F00203002B03D07B6A43F002037B6285
:102B60003B6A03F48063002B08D0FB6803F0040386
:102B7000002B03D07B6A43F004037B623B6A03F4BF
:102B80000063002B43D0FB6803F07003002B3ED0A2
:102B9000FB6803F07003602B2BD0602B2ED8502BDA
:102BA00022D0502B2AD8402B19D0402B26D8302B9E
:102BB00010D0302B22D8102B02D0202B05D01DE0B6
:102BC0007B6A43F008037B6219E07B6A43F01003E1
:102BD0007B6214E07B6A43F020037B620FE07B6A38
:102BE00043F040037B620AE07B6A43F080037B6230
:102BF00005E07B6A43F480737B6200E000BF7B6882
:102C00001B689A697B681B6822F070029A617B6876
:102C10001B6804225A607B6A002B08D07B685A6AC2
:102C20007B6A1A437B685A62786800F072F800BFCA
:102C30002837BD4680BD80B483B000AF786000BF48
:102C40000C37BD465DF8047B704780B483B000AF9D
:102C5000786000BF0C37BD465DF8047B704780B4D8
:102C600083B000AF786000BF0C37BD465DF8047BD1
:102C7000704780B483B000AF786000BF0C37BD46AA
:102C80005DF8047B704780B483B000AF786000BF0C
:102C90000C37BD465DF8047B704780B483B000AF4D
:102CA000786000BF0C37BD465DF8047B704780B488
:102CB00083B000AF786000BF0C37BD465DF8047B81
:102CC000704780B483B000AF786000BF0C37BD465A
:102CD0005DF8047B704780B483B000AF786000BFBC
:102CE0000C37BD465DF8047B704780B483B000AFFD
:102CF000786000BF0C37BD465DF8047B704780B438
:102D000083B000AF786000BF0C37BD465DF8047B30
:102D1000704780B483B000AF786000BF0C37BD4609
:102D20005DF8047B7047000080B485B000AF786028
:102D30007B6803F00703FB600C4BDB68BB60BA6881
:102D40004FF6FF031340BB60FB681A02BB681343D6
:102D500043F0BF6343F40033BB60044ABB68D360F5
:102D600000BF1437BD465DF8047B704700ED00E0FE
:102D700080B400AF044BDB681B0A03F0070318465E
:102D8000BD465DF8047B704700ED00E080B483B081
:102D900000AF0346FB7197F90730002B0BDBFB7983
:102DA00003F01F02074997F907305B09012000FA79
:102DB00002F241F8232000BF0C37BD465DF8047BCA
:102DC000704700BF00E100E080B483B000AF03466D
:102DD0003960FB7197F90730002B0ADB3B68DAB2E8
:102DE0000C4997F907301201D2B20B4483F8002343
:102DF0000AE03B68DAB20849FB7903F00F03043BB1
:102E00001201D2B20B441A7600BF0C37BD465DF8F2
:102E1000047B704700E100E000ED00E080B489B081
:102E200000AFF860B9607A60FB6803F00703FB61EC
:102E3000FB69C3F10703042B28BF0423BB61FB69B3
:102E40000433062B02D9FB69033B00E000237B61BE
:102E50004FF0FF32BB6902FA03F3DA43BB681A4052
:102E60007B699A404FF0FF317B6901FA03F3D94344
:102E70007B680B40134318462437BD465DF8047B3E
:102E80007047000080B582B000AF78607B68013B7E
:102E9000B3F1807F01D301230FE00A4A7B68013B35
:102EA00053600F214FF0FF30FFF78EFF054B0022DC
:102EB0009A60044B07221A60002318460837BD4663
:102EC00080BD00BF10E000E080B582B000AF786048
:102ED0007868FFF729FF00BF0837BD4680BD80B581
:102EE00086B000AF0346B9607A60FB7300237B6154
:102EF000FFF73EFF78617A68B9687869FFF78EFF5F
:102F0000024697F90F3011461846FFF75DFF00BFE4
:102F10001837BD4680BD80B582B000AF0346FB7157
:102F200097F907301846FFF731FF00BF0837BD4655
:102F300080BD80B582B000AF78607868FFF7A2FFEF
:102F4000034618460837BD4680BD000080B487B0F0
:102F500000AF7860396000237B6154E13B681A68F8
:102F600001217B6901FA03F31340FB60FB68002B2E
:102F700000F046813B685B6803F00303012B05D03A
:102F80003B685B6803F00303022B30D17B689B68CE
:102F90003B617B695B00032202FA03F3DB433A697E
:102FA00013403B613B68DA687B695B0002FA03F31C
:102FB0003A6913433B617B683A699A607B685B6856
:102FC0003B6101227B6902FA03F3DB433A69134058
:102FD0003B613B685B681B0903F001027B6902FAF5
:102FE00003F33A6913433B617B683A695A603B6873
:102FF0005B6803F00303032B17D07B68DB683B613E
:103000007B695B00032202FA03F3DB433A69134056
:103010003B613B689A687B695B0002FA03F33A699B
:1030200013433B617B683A69DA603B685B6803F095
:103030000303022B23D17B69DA087B68083253F83B
:1030400022303B617B6903F007039B000F2202FAE9
:1030500003F3DB433A6913403B613B681A697B69C0
:1030600003F007039B0002FA03F33A6913433B6141
:103070007B69DA087B680832396943F822107B687B
:103080001B683B617B695B00032202FA03F3DB43AD
:103090003A6913403B613B685B6803F003027B695C
:1030A0005B0002FA03F33A6913433B617B683A69B8
:1030B0001A603B685B6803F44033002B00F0A0808B
:1030C000584B1B6E574A43F001031366554B1B6E5A
:1030D00003F00103BB60BB68534A7B699B08023362
:1030E00052F823303B617B6903F003039B000F22FE
:1030F00002FA03F3DB433A6913403B617B68B3F1A7
:10310000904F19D07B68494A934213D07B68484A54
:1031100093420DD07B68474A934207D07B68464A6A
:10312000934201D1042308E0072306E0032304E0CF
:10313000022302E0012300E000237A6902F0030287
:10314000920093403A6913433B6137497B699B087E
:1031500002333A6941F82320384B9B683B61FB6896
:10316000DB433A6913403B613B685B6803F48013BF
:10317000002B03D03A69FB6813433B612F4A3B693C
:1031800093602E4BDB683B61FB68DB433A6913407D
:103190003B613B685B6803F40013002B03D03A6982
:1031A000FB6813433B61254A3B69D360234B5B6853
:1031B0003B61FB68DB433A6913403B613B685B68FA
:1031C00003F40033002B03D03A69FB6813433B61DF
:1031D0001A4A3B695360194B1B683B61FB68DB4330
:1031E0003A6913403B613B685B6803F48033002B12
:1031F00003D03A69FB6813433B61104A3B69136093
:103200007B6901337B613B681A687B6922FA03F3AF
:10321000002B7FF4A3AE00BF00BF1C37BD465DF896
:10322000047B704700100240000001400004004889
:1032300000080048000C004800100048000401404D
:1032400080B483B000AF78600B467B8013467B7000
:103250007B78002B03D07A887B689A6102E07A88B9
:103260007B689A6200BF0C37BD465DF8047B7047EF
:1032700080B400AF044B1B6803F4C0631846BD461E
:103280005DF8047B704700BF0070004080B485B0DB
:1032900000AF78607B68B3F5007F30D1234B1B68AB
:1032A00003F4C063B3F5007F38D0204B1B6823F4D0
:1032B000C0631E4A43F4007313601D4B1B68322227
:1032C00002FB03F31B4AA2FB03239B0C0133FB60AD
:1032D00002E0FB68013BFB60144B5B6903F4806315
:1032E000B3F5806F02D1FB68002BF2D10F4B5B6905
:1032F00003F48063B3F5806F10D103230FE00B4B11
:103300001B6803F4C063B3F5806F07D0074B1B68DD
:1033100023F4C063054A43F4806313600023184616
:103320001437BD465DF8047B704700BF0070004055
:103330000000002083DE1B4380B588B000AF7860BA
:103340007B68002B02D1012300F002BC964B9B68E6
:1033500003F00C03BB61944BDB6803F003037B6158
:103360007B681B6803F01003002B00F0E480BB694E
:10337000002B07D0BB690C2B40F08B807B69012BA5
:1033800040F08780884B1B6803F00203002B05D0B8
:103390007B689B69002B01D10123D9E37B681A6A02
:1033A000814B1B6803F00803002B04D07E4B1B6885
:1033B00003F0F00305E07C4BD3F894301B0903F0D5
:1033C000F003934223D27B681B6A184600F054FD39
:1033D0000346002B01D00123BAE3734B1B68724AEA
:1033E00043F008031360704B1B6823F0F0027B6806
:1033F0001B6A6D4913430B606B4B5B6823F47F4280
:103400007B68DB691B02684913434B6025E0664B10
:103410001B68654A43F008031360634B1B6823F085
:10342000F0027B681B6A604913430B605E4B5B686C
:1034300023F47F427B68DB691B025B4913434B60CB
:10344000BB69002B09D17B681B6A184600F014FD8C
:103450000346002B01D001237AE300F081FC0246F1
:10346000514B9B681B0903F00F035049CB5C03F0E1
:103470001F0322FA03F34E4A13604E4B1B68184693
:1034800002F0C0F80346FB73FB7B002B52D0FB7BA2
:103490005EE37B689B69002B32D0434B1B68424A3A
:1034A00043F00103136002F0FDF8386108E002F018
:1034B000F9F802463B69D31A022B01D9032347E3EB
:1034C000394B1B6803F00203002BF0D0364B1B680E
:1034D000354A43F008031360334B1B6823F0F002B6
:1034E0007B681B6A304913430B602F4B5B6823F4E6
:1034F0007F427B68DB691B022B4913434B601AE058
:10350000294B1B68284A23F00103136002F0CAF814
:10351000386108E002F0C6F802463B69D31A022B74
:1035200001D9032314E3204B1B6803F00203002B93
:10353000F0D100E000BF7B681B6803F00103002BA3
:1035400073D0BB69082B05D0BB690C2B0ED17B69EE
:10355000032B0BD1144B1B6803F40033002B63D0F7
:103560007B685B68002B5FD10123F1E27B685B68BD
:10357000B3F5803F06D10C4B1B680B4A43F48033F4
:10358000136025E07B685B68B3F5A02F14D1064B70
:103590001B68054A43F480231360034B1B68024AEF
:1035A00043F48033136013E000100240705C0008A5
:1035B0000000002004000020A04B1B689F4A23F459
:1035C000803313609D4B1B689C4A23F48023136057
:1035D0007B685B68002B13D002F064F8386108E068
:1035E00002F060F802463B69D31A642B01D9032329
:1035F000AEE2924B1B6803F40033002BF0D014E0D2
:1036000002F050F8386108E002F04CF802463B69DD
:10361000D31A642B01D903239AE2884B1B6803F465
:103620000033002BF0D100E000BF7B681B6803F083
:103630000203002B60D0BB69042B05D0BB690C2BA7
:1036400019D17B69022B16D17C4B1B6803F4806374
:10365000002B05D07B68DB68002B01D1012377E2CA
:10366000764B5B6823F0F8527B681B691B06734935
:1036700013434B6040E07B68DB68002B23D06F4B2B
:103680001B686E4A43F48073136002F00BF83861D4
:1036900008E002F007F802463B69D31A022B01D971
:1036A000032355E2654B1B6803F48063002BF0D0C5
:1036B000624B5B6823F0F8527B681B691B065F490D
:1036C00013434B6018E05D4B1B685C4A23F4807326
:1036D000136001F0E7FF386108E001F0E3FF024604
:1036E0003B69D31A022B01D9032331E2534B1B68E8
:1036F00003F48063002BF0D17B681B6803F00803A0
:10370000002B3CD07B685B69002B1CD04B4BD3F863
:1037100094304A4A43F00103C2F8943001F0C2FFEA
:10372000386108E001F0BEFF02463B69D31A022B64
:1037300001D903230CE2414BD3F8943003F0020388
:10374000002BEFD01BE03D4BD3F894303B4A23F0E5
:103750000103C2F8943001F0A5FF386108E001F0E0
:10376000A1FF02463B69D31A022B01D90323EFE1E3
:10377000324BD3F8943003F00203002BEFD17B6877
:103780001B6803F00403002B00F0A6800023FB77E6
:103790002A4B9B6D03F08053002B0DD1274B9B6D63
:1037A000264A43F080539365244B9B6D03F080536E
:1037B000BB60BB680123FB77214B1B6803F480735C
:1037C000002B18D11E4B1B681D4A43F480731360F5
:1037D00001F068FF386108E001F064FF02463B69D0
:1037E000D31A022B01D90323B2E1154B1B6803F452
:1037F0008073002BF0D07B689B68012B08D10F4BA6
:10380000D3F890300D4A43F00103C2F8903029E01C
:103810007B689B68052B15D1084BD3F89030074A7D
:1038200043F00403C2F89030044BD3F89030034ABD
:1038300043F00103C2F8903014E000BF00100240D2
:10384000007000409A4BD3F89030994A23F001035E
:10385000C2F89030964BD3F89030954A23F0040389
:10386000C2F890307B689B68002B16D001F01AFFDD
:1038700038610AE001F016FF02463B69D31A41F2B3
:103880008832934201D9032362E1894BD3F8903007
:1038900003F00203002BEDD015E001F003FF3861C7
:1038A0000AE001F0FFFE02463B69D31A41F288327A
:1038B000934201D903234BE17D4BD3F8903003F0C1
:1038C0000203002BEDD1FB7F012B05D1784B9B6DC3
:1038D000774A23F0805393657B681B6803F02003CD
:1038E000002B3CD07B685B6A002B1CD0704BD3F85C
:1038F00098306F4A43F00103C2F8983001F0D2FECD
:10390000386108E001F0CEFE02463B69D31A022B73
:1039100001D903231CE1664BD3F8983003F002036E
:10392000002BEFD01BE0624BD3F89830604A23F0B5
:103930000103C2F8983001F0B5FE386108E001F0EB
:10394000B1FE02463B69D31A022B01D90323FFE0E3
:10395000574BD3F8983003F00203002BEFD17B686C
:103960009B6A002B00F0F3807B689B6A022B40F07F
:10397000C9804F4BDB687B617B6903F003027B6886
:10398000DB6A9A422CD17B6903F070027B681B6B67
:10399000013B1B019A4223D17B6903F4FE427B6801
:1039A0005B6B1B029A421BD17B6903F078427B68F8
:1039B0009B6BDB069A4213D17B6903F4C0027B68E0
:1039C000DB6B5B08013B5B059A4209D17B6903F025
:1039D000C0627B681B6C5B08013B5B069A426BD044
:1039E000BB690C2B62D0324B1B6803F08063002B49
:1039F00001D00123ACE02E4B1B682D4A23F08073CD
:103A0000136001F04FFE386108E001F04BFE024602
:103A10003B69D31A022B01D9032399E0244B1B687D
:103A200003F00073002BF0D1214BDA68214B1340D7
:103A30007A68D16A7A68126B013A120111437A6886
:103A4000526B120211437A68D26B5208013A520546
:103A500011437A68126C5208013A520611437A688F
:103A6000926BD2060A4312491343CB60104B1B687A
:103A70000F4A43F0807313600D4BDB680C4A43F030
:103A80008073D36001F00EFE386108E001F00AFE99
:103A900002463B69D31A022B01D9032358E0044B99
:103AA0001B6803F00073002BF0D050E001234FE0BF
:103AB000001002408C809D01274B1B6803F00073AF
:103AC000002B44D1244B1B68234A43F080731360BE
:103AD000214BDB68204A43F08073D36001F0E2FDA4
:103AE000386108E001F0DEFD02463B69D31A022B83
:103AF00001D903232CE0184B1B6803F00073002B43
:103B0000F0D024E0BB690C2B1FD0134B1B68124A6A
:103B100023F08073136001F0C5FD386108E001F007
:103B2000C1FD02463B69D31A022B01D903230FE0E2
:103B3000094B1B6803F00073002BF0D1064BDA68C9
:103B40000549064B1340CB6001E0012300E0002350
:103B500018462037BD4680BD00100240FCFFEEFE37
:103B600080B584B000AF786039607B68002B01D1EC
:103B70000123E7E0754B1B6803F007033A689A429C
:103B800010D9724B1B6823F0070270493B6813433E
:103B90000B606E4B1B6803F007033A689A4201D032
:103BA0000123CFE07B681B6803F00203002B10D0D9
:103BB0007B689A68664B9B6803F0F0039A4208D9C9
:103BC000634B9B6823F0F0027B689B68604913435A
:103BD0008B607B681B6803F00103002B4CD07B6873
:103BE0005B68032B07D15A4B1B6803F00073002B53
:103BF00021D10123A6E07B685B68022B07D1544BDF
:103C00001B6803F40033002B15D101239AE07B6875
:103C10005B68002B07D14E4B1B6803F00203002B9F
:103C200009D101238EE04A4B1B6803F48063002B0B
:103C300001D1012386E0464B9B6823F003027B6899
:103C40005B68434913438B6001F02CFDF8600AE088
:103C500001F028FD0246FB68D31A41F288329342F4
:103C600001D903236EE03A4B9B6803F00C027B689A
:103C70005B689B009A42EBD17B681B6803F00203F0
:103C8000002B10D07B689A68314B9B6803F0F003DF
:103C90009A4208D22E4B9B6823F0F0027B689B6807
:103CA0002B4913438B60294B1B6803F007033A68C9
:103CB0009A4210D2254B1B6823F0070223493B6828
:103CC00013430B60214B1B6803F007033A689A42C9
:103CD00001D0012336E07B681B6803F00403002B4E
:103CE00008D01B4B9B6823F4E0627B68DB681849B3
:103CF00013438B607B681B6803F00803002B09D01B
:103D0000134B9B6823F460527B681B69DB001049EE
:103D100013438B6000F024F802460D4B9B681B098F
:103D200003F00F030B49CB5C03F01F0322FA03F3EC
:103D3000094A1360094B1B68184601F063FC0346EF
:103D4000FB72FB7A18461037BD4680BD002002404A
:103D500000100240705C00080000002004000020F9
:103D600080B489B000AF0023FB610023BB613E4BF0
:103D70009B6803F00C033B613B4BDB6803F00303E0
:103D8000FB603B69002B05D03B690C2B21D1FB6804
:103D9000012B1ED1344B1B6803F00803002B07D105
:103DA000314BD3F894301B0A03F00F03FB6105E09D
:103DB0002D4B1B681B0903F00F03FB612B4AFB69AA
:103DC00052F82330FB613B69002B0DD1FB69BB61CD
:103DD0000AE03B69042B02D1254BBB6104E03B693F
:103DE000082B01D1234BBB613B690C2B34D11E4BFB
:103DF000DB6803F00303BB60BB68022B03D0BB6826
:103E0000032B03D005E01A4B7B6105E0194B7B6166
:103E100002E0FB697B6100BF134BDB681B0903F009
:103E2000070301337B60104BDB681B0A03F07F0341
:103E30007A6903FB02F27B68B2FBF3F37B610A4B06
:103E4000DB685B0E03F0030301335B003B607A69C0
:103E50003B68B2FBF3F3BB61BB6918462437BD4630
:103E60005DF8047B704700BF00100240805C0008D2
:103E70000024F40000127A0080B586B000AF7860AC
:103E800000233B612A4B9B6D03F08053002B03D032
:103E9000FFF7EEF9786114E0254B9B6D244A43F05F
:103EA00080539365224B9B6D03F08053FB60FB684E
:103EB000FFF7DEF978611E4B9B6D1D4A23F080539E
:103EC00093657B69B3F5007F0BD17B68802B19D993
:103ED0007B68A02B02D902233B6113E001233B61E5
:103EE00010E07B68802B02D903233B610AE07B68EA
:103EF000802B02D102233B6104E07B68702B01D14F
:103F000001233B610B4B1B6823F0070209493B6906
:103F100013430B60074B1B6803F007033A699A428F
:103F200001D0012300E0002318461837BD4680BDAC
:103F3000001002400020024080B584B000AF7860DD
:103F40007B68002B01D1012395E07B685B6A002B25
:103F500008D17B685B68B3F5827F09D07B6800225B
:103F6000DA6105E07B6800221A617B6800225A61F1
:103F70007B6800229A627B6893F85D30DBB2002B8D
:103F800006D17B68002283F85C207868FDF7ACFFDF
:103F90007B68022283F85D207B681B681A687B6857
:103FA0001B6822F040021A607B68DB68B3F5E06FA3
:103FB00002D90023FB6002E04FF48053FB607B6872
:103FC000DB68B3F5706F07D07B68DB68B3F5E06F33
:103FD00002D07B6800229A627B685B6803F482727D
:103FE0007B689B6803F404431A437B681B6903F0F6
:103FF00002031A437B685B6903F001031A437B6881
:104000009B6903F400731A437B68DB6903F0380390
:104010001A437B681B6A03F0800342EA03017B6852
:104020009B6A03F400527B681B680A431A607B6832
:104030009B691B0C03F004027B685B6A03F01003AE
:104040001A437B685B6B03F008031A437B68DB68E9
:1040500003F4706342EA0301FB6803F480527B6857
:104060001B680A435A607B6800221A667B6801223B
:1040700083F85D20002318461037BD4680BD80B50B
:1040800088B000AFF860B9603B601346FB80002346
:10409000FB77FB6893F85C30012B01D1022358E1D8
:1040A000FB68012283F85C2001F0FCFAB861FB8810
:1040B000FB82FB6893F85D30DBB2012B02D0022358
:1040C000FB773DE1BB68002B02D0FB88002B02D1BF
:1040D0000123FB7734E1FB68032283F85D20FB6852
:1040E00000221A66FB68BA689A63FB68FA889A87A6
:1040F000FB68FA88DA87FB6800221A64FB680022F2
:10410000A3F84420FB680022A3F84620FB680022A5
:104110001A65FB680022DA64FB689B68B3F5004F00
:104120000FD1FB681B681A68FB681B6822F040020D
:104130001A60FB681B681A68FB681B6842F48042BF
:104140001A60FB681B681B6803F04003402B07D014
:10415000FB681B681A68FB681B6842F040021A6023
:10416000FB68DB68B3F5E06F4BD9FB685B68002B3D
:1041700002D0FB8A012B3ED1FB689B6B1A88FB683F
:104180001B68DA60FB689B6B9A1CFB689A63FB6890
:10419000DB8F9BB2013B9AB2FB68DA872BE0FB68AE
:1041A0001B689B6803F00203022B12D1FB689B6B18
:1041B0001A88FB681B68DA60FB689B6B9A1CFB68BB
:1041C0009A63FB68DB8F9BB2013B9AB2FB68DA878C
:1041D00011E001F067FA0246BB69D31A3A689A42C5
:1041E00003D83B68B3F1FF3F02D13B68002B02D1FB
:1041F0000323FB77A4E0FB68DB8F9BB2002BCED1BF
:104200007CE0FB685B68002B02D0FB8A012B70D13D
:10421000FB68DB8F9BB2012B12D9FB689B6B1A8862
:10422000FB681B68DA60FB689B6B9A1CFB689A63EF
:10423000FB68DB8F9BB2023B9AB2FB68DA8758E0DF
:10424000FB689A6BFB681B680C3312781A70FB686A
:104250009B6B5A1CFB689A63FB68DB8F9BB2013B2C
:104260009AB2FB68DA8744E0FB681B689B6803F03E
:104270000203022B2BD1FB68DB8F9BB2012B12D9DF
:10428000FB689B6B1A88FB681B68DA60FB689B6B9A
:104290009A1CFB689A63FB68DB8F9BB2023B9AB265
:1042A000FB68DA8725E0FB689A6BFB681B680C33B8
:1042B00012781A70FB689B6B5A1CFB689A63FB6848
:1042C000DB8F9BB2013B9AB2FB68DA8711E001F009
:1042D000E9F90246BB69D31A3A689A4203D83B68A7
:1042E000B3F1FF3F02D13B68002B02D10323FB77E0
:1042F00026E0FB68DB8F9BB2002BB5D1BA69396829
:10430000F86800F0E3FC0346002B02D0FB68202293
:104310001A66FB689B68002B0AD100233B61FB688F
:104320001B68DB683B61FB681B689B683B613B6902
:10433000FB681B6E002B02D00123FB7700E000BF5F
:10434000FB68012283F85D20FB68002283F85C2073
:10435000FB7F18462037BD4680BD80B588B002AFD0
:10436000F860B9603B601346FB800023FB75FB6877
:104370005B68B3F5827F12D1FB689B68002B0ED17E
:10438000FB68042283F85D20FA883B68009313469B
:10439000BA68B968F86800F010F9034609E1FB68EB
:1043A00093F85C30012B01D1022302E1FB6801226A
:1043B00083F85C2001F076F93861FB6893F85D3092
:1043C000DBB2012B02D00223FB75E9E0BB68002BB6
:1043D00002D0FB88002B02D10123FB75E0E0FB68D3
:1043E000042283F85D20FB6800221A66FB68BA6825
:1043F0001A64FB68FA88A3F84420FB68FA88A3F8DB
:104400004620FB6800229A63FB6800229A87FB68BB
:104410000022DA87FB680022DA64FB6800221A6552
:10442000FB68DB68B3F5E06F08D9FB681B685A6866
:10443000FB681B6822F480525A6007E0FB681B6827
:104440005A68FB681B6842F480525A60FB689B689C
:10445000B3F5004F0FD1FB681B681A68FB681B6837
:1044600022F040021A60FB681B681A68FB681B6830
:1044700022F480421A60FB681B681B6803F040034B
:10448000402B07D0FB681B681A68FB681B6842F06A
:1044900040021A60FB68DB68B3F5E06F67D830E074
:1044A000FB681B689B6803F00103012B17D1FB68B5
:1044B0001B6803F10C02FB681B6C1278D2B21A70F5
:1044C000FB681B6C5A1CFB681A64FB68B3F8463027
:1044D0009BB2013B9AB2FB68A3F8462011E001F0C1
:1044E000E1F802463B69D31A3A689A4203D83B681E
:1044F000B3F1FF3F02D13B68002B02D10323FB75D0
:104500004EE0FB68B3F846309BB2002BC8D134E0D4
:10451000FB681B689B6803F00103012B15D1FB6846
:104520001B68DA68FB681B6C92B21A80FB681B6C14
:104530009A1CFB681A64FB68B3F846309BB2013BD7
:104540009AB2FB68A3F8462011E001F0ABF80246EE
:104550003B69D31A3A689A4203D83B68B3F1FF3FEC
:1045600002D13B68002B02D10323FB7518E0FB68E6
:10457000B3F846309BB2002BCAD13A693968F86863
:1045800000F04CFB0346002B02D0FB6820221A6689
:10459000FB681B6E002B02D00123FB7500E000BFFF
:1045A000FB68012283F85D20FB68002283F85C2011
:1045B000FB7D18461837BD4680BD80B58AB000AF78
:1045C000F860B9607A607B8001237B62002387F802
:1045D0002330FB6893F85C30012B01D10223FBE10F
:1045E000FB68012283F85C2001F05CF8F861FB684D
:1045F00093F85D30FB76FB685B687B617B887B8230
:104600007B883B82FB7E012B0ED07B69B3F5827FDA
:1046100006D1FB689B68002B02D1FB7E042B03D0E4
:10462000022387F82330CDE1BB68002B05D07B68DF
:10463000002B02D07B88002B03D1012387F8233085
:10464000C0E1FB6893F85D30DBB2042B03D0FB685C
:10465000052283F85D20FB6800221A66FB687A68F1
:104660001A64FB687A88A3F84620FB687A88A3F866
:104670004420FB68BA689A63FB687A88DA87FB682B
:104680007A889A87FB680022DA64FB6800221A6540
:10469000FB68DB68B3F5E06F02D83B8A012B08D9D1
:1046A000FB681B685A68FB681B6822F480525A60DA
:1046B00007E0FB681B685A68FB681B6842F480527D
:1046C0005A60FB681B681B6803F04003402B07D04F
:1046D000FB681B681A68FB681B6842F040021A609E
:1046E000FB68DB68B3F5E06F7CD9FB685B68002B87
:1046F00002D07B8A012B69D1FB689B6B1A88FB680F
:104700001B68DA60FB689B6B9A1CFB689A63FB680A
:10471000DB8F9BB2013B9AB2FB68DA8756E0FB68FD
:104720001B689B6803F00203022B1BD1FB68DB8F25
:104730009BB2002B16D07B6A012B13D1FB689B6BBD
:104740001A88FB681B68DA60FB689B6B9A1CFB6825
:104750009A63FB68DB8F9BB2013B9AB2FB68DA87F6
:1047600000237B62FB681B689B6803F00103012B3D
:104770001CD1FB68B3F846309BB2002B16D0FB6807
:104780001B68DA68FB681B6C92B21A80FB681B6CB2
:104790009A1CFB681A64FB68B3F846309BB2013B75
:1047A0009AB2FB68A3F8462001237B6200F07AFFEF
:1047B0000246FB69D31A3A6B9A4207D83B6BB3F1B6
:1047C000FF3F03D0032387F82330FBE0FB68DB8F38
:1047D0009BB2002BA3D1FB68B3F846309BB2002BF1
:1047E0009DD1DFE0FB685B68002B03D07B8A012B47
:1047F00040F0CB80FB68DB8F9BB2012B12D9FB68AA
:104800009B6B1A88FB681B68DA60FB689B6B9A1CC1
:10481000FB689A63FB68DB8F9BB2023B9AB2FB6832
:10482000DA87B2E0FB689A6BFB681B680C3312787E
:104830001A70FB689B6B5A1CFB689A63FB68DB8FE2
:104840009BB2013B9AB2FB68DA879EE0FB681B686B
:104850009B6803F00203022B34D1FB68DB8F9BB211
:10486000002B2FD07B6A012B2CD1FB68DB8F9BB2F6
:10487000012B12D9FB689B6B1A88FB681B68DA60F6
:10488000FB689B6B9A1CFB689A63FB68DB8F9BB28F
:10489000023B9AB2FB68DA8712E0FB689A6BFB680E
:1048A0001B680C3312781A70FB689B6B5A1CFB68F0
:1048B0009A63FB68DB8F9BB2013B9AB2FB68DA8795
:1048C00000237B62FB681B689B6803F00103012BDC
:1048D00048D1FB68B3F846309BB2002B42D0FB684E
:1048E000B3F846309BB2012B23D9FB681B68DA680A
:1048F000FB681B6C92B21A80FB681B6C9A1CFB68ED
:104900001A64FB68B3F846309BB2023B9AB2FB686C
:10491000A3F84620FB68B3F846309BB2012B1FD8A2
:10492000FB681B685A68FB681B6842F480525A6037
:1049300016E0FB681B6803F10C02FB681B6C127825
:10494000D2B21A70FB681B6C5A1CFB681A64FB68B5
:10495000B3F846309BB2013B9AB2FB68A3F84620FD
:1049600001237B6200F09EFE0246FB69D31A3A6B7C
:104970009A4203D83B6BB3F1FF3F02D13B6B002B54
:1049800003D1032387F823301CE0FB68DB8F9BB245
:10499000002B7FF45BAFFB68B3F846309BB2002B73
:1049A0007FF454AFFA69396BF86800F08FF9034669
:1049B000002B06D0012387F82330FB6820221A66DB
:1049C00000E000BFFB68012283F85D20FB68002245
:1049D00083F85C2097F8233018462837BD4680BD01
:1049E00080B588B000AFF860B9603B601346FB71DA
:1049F00000F058FE0246BB6A9B1A3A681344FB61FA
:104A000000F050FEB861394B1B685B011B0DFA6961
:104A100002FB03F37B6154E03B68B3F1FF3F50D0EE
:104A200000F040FE0246BB69D31AFA699A4202D9E5
:104A3000FB69002B3DD1FB681B685A68FB681B684B
:104A400022F0E0025A60FB685B68B3F5827F11D107
:104A5000FB689B68B3F5004F04D0FB689B68B3F517
:104A6000806F07D1FB681B681A68FB681B6822F01F
:104A700040021A60FB689B6AB3F5005F0FD1FB68C8
:104A80001B681A68FB681B6822F400521A60FB68F6
:104A90001B681A68FB681B6842F400521A60FB68C6
:104AA000012283F85D20FB68002283F85C20032349
:104AB00017E07B69002B01D10023FB617B69013B7F
:104AC0007B61FB681B689A68BB681340BA689A42AE
:104AD0000CBF01230023DBB21A46FB799A429BD11B
:104AE000002318462037BD4680BD00BF00000020CF
:104AF00080B58AB000AFF860B9607A603B6000238F
:104B0000FB7500F0CFFD02463B6B9B1A3A681344DD
:104B10007B6200F0C7FD3862FB681B680C33FB61E9
:104B20003D4B1A6813469B001344DA00D31A1B0D41
:104B30007A6A02FB03F3BB6160E0BB68B3F5C06F48
:104B400007D17B68002B04D1FB691B78DBB2FB75B6
:104B5000FB7D3B68B3F1FF3F50D000F0A3FD024660
:104B60003B6AD31A7A6A9A4202D97B6A002B3DD1FA
:104B7000FB681B685A68FB681B6822F0E0025A60F9
:104B8000FB685B68B3F5827F11D1FB689B68B3F566
:104B9000004F04D0FB689B68B3F5806F07D1FB68BA
:104BA0001B681A68FB681B6822F040021A60FB68E9
:104BB0009B6AB3F5005F0FD1FB681B681A68FB683E
:104BC0001B6822F400521A60FB681B681A68FB68B5
:104BD0001B6842F400521A60FB68012283F85D20D2
:104BE000FB68002283F85C20032310E0BB69002BE4
:104BF00001D100237B62BB69013BBB61FB681B6881
:104C00009A68BB6813407A689A4296D10023184686
:104C10002837BD4680BD00BF0000002080B586B0AB
:104C200002AFF860B9607A60FB685B68B3F5827FB9
:104C300011D1FB689B68B3F5004F04D0FB689B68FB
:104C4000B3F5806F07D1FB681B681A68FB681B68A7
:104C500022F040021A607B680093BB68002280212A
:104C6000F868FFF7BDFE0346002B07D0FB681B6EFC
:104C700043F02002FB681A66032323E0FB685B68AD
:104C8000B3F5827F1DD1FB689B68B3F5004F04D05C
:104C9000FB689B68B3F5806F13D17B680093BB689A
:104CA00000224FF4C061F868FFF722FF0346002B93
:104CB00007D0FB681B6E43F02002FB681A660323D3
:104CC00000E0002318461037BD4680BD80B586B091
:104CD00002AFF860B9607A607B680093BB6800221D
:104CE0004FF4C051F868FFF703FF0346002B07D0CD
:104CF000FB681B6E43F02002FB681A66032327E063
:104D00007B680093BB6800228021F868FFF768FE8B
:104D10000346002B07D0FB681B6E43F02002FB68A4
:104D20001A66032314E07B680093BB6800224FF4EB
:104D3000C061F868FFF7DCFE0346002B07D0FB6874
:104D40001B6E43F02002FB681A66032300E0002379
:104D500018461037BD4680BD80B485B000AF78607E
:104D600039607B6893F83C30012B01D102234FE07E
:104D70007B68012283F83C207B68022283F83D2077
:104D80007B681B685B68FB607B681B689B68BB601B
:104D90007B681B68214A934208D1FB6823F47003A7
:104DA000FB603B685B68FA681343FB60FB6823F0B9
:104DB0007003FB603B681B68FA681343FB607B6809
:104DC0001B68FA685A607B681B68144A934209D0D2
:104DD0007B681B68B3F1804F04D07B681B68104A66
:104DE00093420CD1BB6823F08003BB603B689B6897
:104DF000BA681343BB607B681B68BA689A607B68BB
:104E0000012283F83D207B68002283F83C200023A8
:104E100018461437BD465DF8047B7047002C0140EE
:104E20000040014080B483B000AF786000BF0C3711
:104E3000BD465DF8047B704780B483B000AF7860F6
:104E400000BF0C37BD465DF8047B704780B483B06B
:104E500000AF786000BF0C37BD465DF8047B70473B
:104E600080B582B000AF78607B68002B01D1012350
:104E700049E07B6893F83D30DBB2002B06D17B68BC
:104E8000002283F83C207868FDF770F87B680222E6
:104E900083F83D207B681A687B6804331946104606
:104EA00000F09AFA7B68012283F848207B6801228F
:104EB00083F83E207B68012283F83F207B68012233
:104EC00083F840207B68012283F841207B6801221F
:104ED00083F842207B68012283F843207B6801220B
:104EE00083F844207B68012283F845207B680122F7
:104EF00083F846207B68012283F847207B680122E3
:104F000083F83D20002318460837BD4680BD0000C9
:104F100080B485B000AF78607B6893F83D30DBB239
:104F2000012B01D001233BE07B68022283F83D2066
:104F30007B681B68DA687B681B6842F00102DA60F4
:104F40007B681B68194A934209D07B681B68B3F1E0
:104F5000804F04D07B681B68154A934215D17B684B
:104F60001B689A68134B1340FB60FB68062B15D037
:104F7000FB68B3F5803F11D07B681B681A687B68BB
:104F80001B6842F001021A6008E07B681B681A681F
:104F90007B681B6842F001021A6000E000BF00233A
:104FA00018461437BD465DF8047B7047002C01405D
:104FB000004001400700010080B582B000AF78607A
:104FC0007B681B681B6903F00203022B22D17B68FC
:104FD0001B68DB6803F00203022B1BD17B681B6894
:104FE0006FF002021A617B6801221A777B681B68E6
:104FF0009B6903F00303002B03D0786800F0CEF91F
:1050000005E0786800F0C0F9786800F0D1F97B68B5
:1050100000221A777B681B681B6903F00403042BCA
:1050200022D17B681B68DB6803F00403042B1BD1CF
:105030007B681B686FF004021A617B6802221A7792
:105040007B681B689B6903F44073002B03D078686E
:1050500000F0A4F905E0786800F096F9786800F0AF
:10506000A7F97B6800221A777B681B681B6903F02D
:105070000803082B22D17B681B68DB6803F0080358
:10508000082B1BD17B681B686FF008021A617B68D4
:1050900004221A777B681B68DB6903F00303002B8B
:1050A00003D0786800F07AF905E0786800F06CF9D0
:1050B000786800F07DF97B6800221A777B681B68AE
:1050C0001B6903F01003102B22D17B681B68DB687F
:1050D00003F01003102B1BD17B681B686FF01002CC
:1050E0001A617B6808221A777B681B68DB6903F406
:1050F0004073002B03D0786800F050F905E0786821
:1051000000F042F9786800F053F97B6800221A77C2
:105110007B681B681B6903F00103012B0ED17B68C0
:105120001B68DB6803F00103012B07D17B681B6858
:105130006FF001021A617868FCF742FC7B681B681B
:105140001B6903F08003802B0ED17B681B68DB6832
:1051500003F08003802B07D17B681B686FF080020F
:105160001A617868FFF768FE7B681B681B6903F4A7
:105170008073B3F5807F0ED17B681B68DB6803F01A
:105180008003802B07D17B681B686FF480721A61E3
:105190007868FFF75BFE7B681B681B6903F04003C0
:1051A000402B0ED17B681B68DB6803F04003402B6B
:1051B00007D17B681B686FF040021A61786800F0C5
:1051C00001F97B681B681B6903F02003202B0ED1BB
:1051D0007B681B68DB6803F02003202B07D17B680A
:1051E0001B686FF020021A617868FFF71BFE00BF92
:1051F0000837BD4680BD80B584B000AF78603960A7
:105200000023FB737B6893F83C30012B01D1022310
:10521000B6E07B68012283F83C207B68022283F899
:105220003D207B681B689B68BB60BB6823F48033B0
:1052300023F07703BB60BB6823F47F43BB607B68CC
:105240001B68BA689A603B681B68B3F5005F3ED084
:10525000B3F5005F00F28780B3F5805F00F08680D1
:10526000B3F5805F7FD8702B1AD0702B7BD8602B62
:1052700050D0602B77D8502B3CD0502B73D8402B7C
:1052800058D0402B6FD8302B64D0302B6BD8202BCC
:1052900060D0202B67D8002B5CD0102B5AD062E056
:1052A0007B6818683B6899683B685A683B68DB68AC
:1052B00000F070F97B681B689B68BB60BB6843F0BB
:1052C0007703BB607B681B68BA689A604FE07B68B5
:1052D00018683B6899683B685A683B68DB6800F06F
:1052E00059F97B681B689A687B681B6842F48042A6
:1052F0009A603CE07B6818683B6859683B68DB68EB
:105300001A4600F0CDF87B681B685021184600F063
:1053100026F92CE07B6818683B6859683B68DB68B5
:105320001A4600F0ECF87B681B686021184600F014
:1053300016F91CE07B6818683B6859683B68DB68B5
:105340001A4600F0ADF87B681B684021184600F053
:1053500006F90CE07B681A683B681B681946104622
:1053600000F0FDF803E00123FB7300E000BF7B6861
:10537000012283F83D207B68002283F83C20FB7BE0
:1053800018461037BD4680BD80B483B000AF78604A
:1053900000BF0C37BD465DF8047B704780B483B016
:1053A00000AF786000BF0C37BD465DF8047B7047E6
:1053B00080B483B000AF786000BF0C37BD465DF8A5
:1053C000047B704780B483B000AF786000BF0C37B7
:1053D000BD465DF8047B704780B485B000AF78604F
:1053E00039607B681B68FB607B682A4A934203D064
:1053F0007B68B3F1804F08D1FB6823F07003FB603A
:105400003B685B68FA681343FB607B68214A934200
:105410000BD07B68B3F1804F07D07B681E4A934264
:1054200003D07B681D4A934208D1FB6823F4407384
:10543000FB603B68DB68FA681343FB60FB6823F0A2
:1054400080023B685B691343FB607B68FA681A6003
:105450003B689A687B68DA623B681A687B689A6284
:105460007B680C4A934207D07B680B4A934203D077
:105470007B680A4A934203D13B681A697B681A63C6
:105480007B6801225A6100BF1437BD465DF8047B7A
:10549000704700BF002C0140004001400044014023
:1054A00080B487B000AFF860B9607A60FB681B6AAF
:1054B0007B61FB681B6A23F00102FB681A62FB68D0
:1054C0009B693B613B6923F0F0033B617B681B01F7
:1054D0003A6913433B617B6923F00A037B617A6974
:1054E000BB6813437B61FB683A699A61FB687A6920
:1054F0001A6200BF1C37BD465DF8047B704780B45C
:1055000087B000AFF860B9607A60FB681B6A23F06F
:105510001002FB681A62FB689B697B61FB681B6A6F
:105520003B617B6923F470437B617B681B037A6971
:1055300013437B613B6923F0A0033B61BB681B0104
:105540003A6913433B61FB687A699A61FB683A697F
:105550001A6200BF1C37BD465DF8047B704780B4FB
:1055600085B000AF786039607B689B68FB60FB6842
:1055700023F07003FB603A68FB68134343F00703B2
:10558000FB607B68FA689A6000BF1437BD465DF81F
:10559000047B704780B487B000AFF860B9607A6070
:1055A0003B60FB689B687B617B6923F47F437B6185
:1055B0003B681A027B681A43BB6813437A6913433A
:1055C0007B61FB687A699A6000BF1C37BD465DF855
:1055D000047B704780B582B000AF0023FB710320CD
:1055E000FDF772FC0F2000F00DF80346002B02D0EF
:1055F0000123FB7101E0FCF707FCFB791846083733
:10560000BD4680BD80B584B000AF78600023FB73D9
:10561000174B1B78002B23D0164B1A68144B1B78A2
:1056200019464FF47A73B3FBF1F3B2FBF3F3184668
:10563000FDF77FFC0346002B0FD17B680F2B09D8A9
:10564000002279684FF0FF30FDF749FC0A4A7B6879
:10565000136007E00123FB7304E00123FB7301E007
:105660000123FB73FB7B18461037BD4680BD00BF8E
:1056700008000020000000200400002080B400AFDB
:10568000064B1B781A46064B1B681344044A1360EA
:1056900000BFBD465DF8047B704700BF08000020D6
:1056A0007002002080B400AF034B1B681846BD4653
:1056B0005DF8047B704700BF7002002080B584B0A5
:1056C00000AF7860FFF7EEFFB8607B68FB60FB68B7
:1056D000B3F1FF3F05D00A4B1B781A46FB68134411
:1056E000FB6000BFFFF7DEFF0246BB68D31AFA6813
:1056F0009A42F7D800BF00BF1037BD4680BD00BF3B
:105700000800002070B50D4D0D4C641BA410002640
:10571000A64209D10B4D0C4C00F098FA641BA41062
:105720000026A64205D170BD55F8043B98470136C6
:10573000EEE755F8043B98470136F2E7205D000894
:10574000205D0008205D0008245D00080244034637
:10575000934200D1704703F8011BF9E700F000B84D
:105760002DE9F84357EC116B7342DFF884E127F021
:105770000042334342EAD373734551EC100B11EEF0
:10578000108A0AD8444221F00043044343EAD47407
:10579000744510EE109A8C4607D932463B46FAF70C
:1057A0001DFD41EC100BBDE8F88307F1404404F502
:1057B0008014344303D1BDE8F84300F09DB8BC1712
:1057C00004F0020453EA090944EAD17407D1022C17
:1057D00060D0032CE5D142A1D1E90001E1E752EA12
:1057E000080806D1BCF1000F5FDA3FA1D1E9000142
:1057F000D7E772450FD1934204F1FF3407D1022C51
:105800004CD8354B03EBC404D4E90001C9E7022CA2
:1058100048D8324BF6E77345E4D09B1AB3F1747F56
:105820004FEA23521EDA002F01DA3C321EDB3246E9
:105830003B46FAF7B3FF41EC100B00F0FDF900F026
:105840005BF851EC100B012C13D0022C15D0002C5E
:10585000A7D019A3D3E90023FAF7BEFC18A3D3E914
:10586000002314E018A1D1E90001ECE70020002199
:10587000E9E701F10043194693E70FA3D3E90023B9
:10588000FAF7AAFC02460B460DA1D1E90001FAF78E
:10589000A3FC86E70AA1D1E9000182E70CA1D1E9C6
:1058A00000017EE7002000217BE707A1D1E900018C
:1058B00077E700BFAFF30080075C143326A6A13C56
:1058C000182D4454FB210940182D4454FB21F93F65
:1058D000182D4454FB21E93FB05C0008C85C000867
:1058E000182D4454FB2109C0182D4454FB21F9BF45
:1058F0000000F07F000000002DE9F84F55EC104B40
:10590000C34B25F000469E42AB4618DDC14B9E427C
:1059100001DC09D144B122462B4620462946FAF73C
:105920005DFC04460D4606E0BBF1000F00F331813B
:105930009BA5D5E9004545EC104BBDE8F88FB64B6B
:105940009E4214DCA3F1DE739E420DDC96A3D3E9E4
:10595000002310EE100A2946FAF740FCAF4B002254
:10596000FBF7D2F80028E6D14FF0FF3A2BE000F029
:1059700063F9AB4B9E4255EC104B00F3BF80A3F58F
:1059800050239E4200F3A08010EE102A10EE100A61
:105990002B462946FAF722FCA04B0022FAF71CFC02
:1059A000002206460F464FF0804320462946FAF76C
:1059B00015FC02460B4630463946FAF7EFFE4FF02B
:1059C000000A04460D4622462B4620462946FAF791
:1059D000BBFD02460B4680468946FAF7B5FD74A327
:1059E000D3E9002306460F46FAF7AEFD72A3D3E9CA
:1059F0000023FAF7F3FB32463B46FAF7A5FD70A306
:105A0000D3E90023FAF7EAFB32463B46FAF79CFD5E
:105A10006DA3D3E90023FAF7E1FB32463B46FAF7E0
:105A200093FD6BA3D3E90023FAF7D8FB32463B463C
:105A3000FAF78AFD68A3D3E90023FAF7CFFB4246C1
:105A40004B46FAF781FD66A3D3E9002380468946D9
:105A500030463946FAF778FD63A3D3E90023FAF715
:105A6000BBFB32463B46FAF76FFD61A3D3E9002347
:105A7000FAF7B2FB32463B46FAF766FD5EA3D3E97E
:105A80000023FAF7A9FB32463B46FAF75DFD5CA31B
:105A9000D3E90023FAF7A0FB32463B46FAF754FD60
:105AA00002460B4640464946FAF798FB22462B46EB
:105AB000FAF74AFDBAF1FF3F02460B464BD12046AA
:105AC0002946FAF789FB2CE710EE100A534B002207
:105AD0002946FAF781FB514B06460F460022204625
